:100000000C942A000C9447000C9447000C94470071
:100010000C9447000C94AD050C9447000C944700D9
:100020000C9447000C9480050C9447000C945405E4
:100030000C9447000C9447000C9447000C94470024
:100040000C9447000C9447000C9447000C94470014
:100050000C94470011241FBECFE5D8E0DEBFCDBF12
:1000600010E0A0E6B0E0EAE0FCE002C005900D92EE
:10007000A236B107D9F720E0A2E6B0E001C01D9298
:10008000A839B207E1F70E9456000C9403060C94BD
:10009000000061E080E00E941301089581E00E9469
:1000A000A301089582E00E94A301089561E080E029
:1000B0000E94830061E081E00E94830061E082E0B1
:1000C0000E94830061E083E00E9483000E9401029D
:1000D00041E050E064EF71E089E490E00E94190291
:1000E00050E040E064E670E08EE490E00E94190287
:1000F00050E040E068EC70E082E590E00E94190278
:100100000E94CF02FDCF803208F08BC0282F2695A9
:100110002695269591E4920F8770223009F445C008
:10012000943408F060C09134A9F0923489F46111DC
:100130002FC047B321E030E0F90102C0EE0FFF1FEE
:100140008A95E2F7CF018095842387BB862F089597
:1001500081E0089561110FC04AB321E030E0F90158
:1001600002C0EE0FFF1F8A95E2F7CF01809584232E
:100170008ABB862F08959AB321E030E002C0220F97
:10018000331F8A95E2F7892F822B8ABB80E008957E
:1001900097B321E030E002C0220F331F8A95E2F7C7
:1001A000892F822B87BB80E0089561110FC044B373
:1001B00021E030E0F90102C0EE0FFF1F8A95E2F75F
:1001C000CF018095842384BB862F089594B321E0CA
:1001D00030E002C0220F331F8A95E2F7892F822B6D
:1001E00084BB80E0089561110FC041B321E030E08D
:1001F000B90102C0660F771F8A95E2F7CB0180959F
:10020000842381BB81E0089591B321E030E002C0F6
:10021000220F331F8A95E2F7892F822B81BB81E061
:10022000089580E00895803208F08BC0282F26952D
:100230002695269591E4920F8770223009F445C0E7
:10024000943408F060C09134A9F0923489F46111BB
:100250002FC048B321E030E0F90102C0EE0FFF1FCC
:100260008A95E2F7CF018095842388BB862F089575
:1002700081E0089561110FC04BB321E030E0F90136
:1002800002C0EE0FFF1F8A95E2F7CF01809584230D
:100290008BBB862F08959BB321E030E002C0220F74
:1002A000331F8A95E2F7892F822B8BBB80E008955C
:1002B00098B321E030E002C0220F331F8A95E2F7A5
:1002C000892F822B88BB80E0089561110FC045B350
:1002D00021E030E0F90102C0EE0FFF1F8A95E2F73E
:1002E000CF018095842385BB862F089595B321E0A7
:1002F00030E002C0220F331F8A95E2F7892F822B4C
:1003000085BB80E0089561110FC042B321E030E069
:10031000F90102C0EE0FFF1F8A95E2F7CF01809529
:10032000842382BB862F089592B321E030E002C07F
:10033000220F331F8A95E2F7892F822B82BB80E040
:10034000089581E00895803208F045C0282F269551
:100350002695269591E4920F8770223011F19434FE
:1003600068F5913489F0923469F498B321E030E073
:1003700002C0220F331F8A95E2F7892F822788BB9C
:1003800080E0089581E008959BB321E030E002C051
:10039000220F331F8A95E2F7892F82278BBB80E0DB
:1003A000089595B321E030E002C0220F331F8A95F3
:1003B000E2F7892F822785BB80E0089592B321E080
:1003C00030E002C0220F331F8A95E2F7892F82277F
:1003D00082BB80E0089581E0089580916200909151
:1003E0006300A0916400B09165000196A11DB11D4C
:1003F0008093620090936300A0936400B0936500C3
:100400000895CF93DF9300D000D0CDB7DEB7198227
:100410001A8282E08B8381E08C83CE0101960E9458
:10042000810380E00F900F900F900F90DF91CF919C
:100430000895CF92DF92EF92FF92E82FF92F262FA7
:10044000372FC0906600D0906700E0906800F09071
:10045000690084E0C816D104E104F10408F043C047
:1004600082E0309709F440C02115310569F58BE031
:100470008C9DD0018D9DB00D1124A659BF4F4C937A
:1004800080E09BE09C9DD0019D9DB00D1124A6595C
:10049000BF4F1A96FC93EE931997A90170E060E0A4
:1004A00011964D935D936D937C9314979FEFC91AAA
:1004B000D90AE90AF90AC0926600D0926700E09270
:1004C0006800F092690010C084E021303105C9F65F
:1004D0008BE08C9DD0018D9DB00D1124A659BF4F8E
:1004E0004C9380E0CECF81E0FF90EF90DF90CF90F3
:1004F0000895CF92DF92EF92FF920F931F93CF93C5
:10050000DF93C82FD92FC0906600D0906700E0908D
:100510006800F090690083E0C114D104E104F104A3
:10052000A9F181E0C81AD108E108F10831F180E0B1
:100530009BE09C9D80019D9D100D112406591F4F2D
:1005400011C0DF012BE0F80101900D922A95E1F72F
:100550008F5F482F50E070E060E04C155D056E0540
:100560007F0558F4989FF0011124E659FF4F21852B
:1005700032852C173D0761F7E4CFC0926600D09218
:100580006700E0926800F092690080E0DF91CF910F
:100590001F910F91FF90EF90DF90CF9008957F9281
:1005A0008F929F92AF92BF92CF92DF92EF92FF9283
:1005B0000F931F93CF93DF9300D000D000D0CDB71F
:1005C000DEB7809160008130B1F08091660090913B
:1005D0006700A0916800B0916900712C892B8A2B6B
:1005E0008B2B99F08AE690E09E838D83C12CD12CD1
:1005F0007601712C3BC04DEE51E070E060E080E090
:100600000E94CF03782E10926000872D26960FB699
:10061000F894DEBF0FBECDBFDF91CF911F910F9138
:10062000FF90EF90DF90CF90BF90AF909F908F9012
:100630007F900895818592850E947902782EFFEF40
:10064000CF1ADF0AEF0AFF0A8D819E810B969E83E7
:100650008D838091660090916700A0916800B091B1
:100660006900C816D906EA06FB0678F60D811E81D8
:100670008090620090906300A0906400B09065004C
:10068000D80115962D913D914D915C9118972F5F52
:100690003F4F4F4F5F4F11968D919D910D90BC91A3
:1006A000A02DBC01CD010E94D90569837A838B837B
:1006B0009C8386169706A806B90609F68091620003
:1006C00090916300A0916400B0916500892B8A2B02
:1006D0008B2B09F4B4CFD8011996ED91FC910995B3
:1006E000F80185819681A781B0850196A11DB11D74
:1006F00085839683A783B0878081813009F09FCF5F
:1007000099CFE82FF92F309709F43FC09081292F16
:1007100030E0D901A157BF4F8C918130F1F0933077
:10072000B0F582818330A8F543814230A0F5518134
:10073000583098F5D901A157BF4F61E06C93D901AA
:10074000AE56BF4F8C932B563F4FD9014C938130FF
:1007500029F083818130A1F080E00895913041F04B
:10076000923051F09111F9CF83B7582B53BFF1CF8D
:100770008EB5582B5EBDEDCF85B5582B55BDE9CF55
:100780008FB780688FBF80E0089580E0089581E092
:10079000089581E0089581E0089581E00895982FFB
:1007A000262F372F642F752F813009F49AC082309D
:1007B00009F40FC1882311F081E00895409192005F
:1007C000413009F46FC0411137C083B7826083BFE5
:1007D00080919500811114C02115310509F45DC186
:1007E00050E040E06EEF98B7916098BF62BF08B6E6
:1007F00000FEFDCF4F5F5F4F24173507A1F7089527
:10080000813011F0842F089588B7816088BF8EEF02
:1008100082BF82B790E090938C0080938B0089B761
:10082000816089BF80918D0090918E0090938E00A1
:1008300080938D00842F0895423009F0089583B786
:10084000836083BF80919500811114C0211531050B
:1008500009F423C150E040E062E898B7916098BF86
:1008600062BF08B600FEFDCF4F5F5F4F241735070C
:10087000A1F70895813011F0892F089588B781601C
:1008800088BF82E882BF22B730E030938C0020938B
:100890008B0089B7816089BF70938E0060938D0053
:1008A000892F089580919500811109C098B79160B2
:1008B00098BF209522BF08B600FEFDCF0895813075
:1008C00011F0892F089588B7816088BF8EEF82BFAD
:1008D00089B7816089BF70938E0060938D00892FE6
:1008E000089590919300913009F454C0911127C05C
:1008F0008EB582608EBD80919600811116C0211543
:10090000310509F4CAC050E040E06FEF7FEF98B7BF
:10091000946098BF7DBD6CBD08B602FEFDCF4F5FF1
:100920005F4F2417350799F70895813011F0892F0B
:10093000089570938E0060938D00892F08959230F2
:1009400011F080E008958EB583608EBD8091960091
:10095000811116C02115310509F49FC050E040E017
:1009600063E87FEF98B7946098BF7DBD6CBD08B613
:1009700002FEFDCF4F5F5F4F2417350799F70895AB
:10098000813011F080E0089570938E0060938D00A7
:1009900080E008958091960081110CC098B7946012
:1009A00098BF3195219531093DBD2CBD08B602FE99
:1009B000FDCF0895813011F080E0089531952195A3
:1009C00031093DBD2CBD70938E0060938D0080E099
:1009D000089590919400913009F44FC0911125C071
:1009E00085B5826085BD80919700811114C0211565
:1009F000310509F452C050E040E06EEF64BD08B626
:100A000006FEFDCF98B7906498BF4F5F5F4F2417E5
:100A10003507A1F70895813011F0892F089570935B
:100A20008E0060938D00892F0895923011F080E040
:100A3000089585B5846085BD80919700811113C0AC
:100A40002115310551F150E040E062E864BD08B67F
:100A500006FEFDCF98B7906498BF4F5F5F4F241795
:100A60003507A1F70895813011F080E00895709363
:100A70008E0060938D0080E0089580919700811131
:100A800009C098B7906498BF209524BD08B606FEAB
:100A9000FDCF0895813011F080E0089570938E00AD
:100AA00060938D0080E008951F920F920FB60F9211
:100AB00011242F933F934F935F936F937F938F9363
:100AC0009F93AF93BF93EF93FF9380918B0090918F
:100AD0008C0082BFE0918D00F0918E000995FF910E
:100AE000EF91BF91AF919F918F917F916F915F91A6
:100AF0004F913F912F910F900FBE0F901F9018951F
:100B00001F920F920FB60F9211242F933F934F9382
:100B10005F936F937F938F939F93AF93BF93EF9365
:100B2000FF9380918B0090918C009DBD8CBDE091D6
:100B30008D00F0918E000995FF91EF91BF91AF91DB
:100B40009F918F917F916F915F914F913F912F91E5
:100B50000F900FBE0F901F9018951F920F920FB617
:100B60000F9211242F933F934F935F936F937F9333
:100B70008F939F93AF93BF93EF93FF9380918B00DD
:100B800090918C0084BDE0918D00F0918E000995CC
:100B9000FF91EF91BF91AF919F918F917F916F9155
:100BA0005F914F913F912F910F900FBE0F901F902B
:100BB0001895DB018F939F930E94E905BF91AF9138
:100BC000A29F800D911DA39F900DB29F900D1124A7
:100BD00008950E94F405A59F900DB49F900DA49FC9
:100BE000800D911D11240895A29FB001B39FC001F3
:100BF000A39F700D811D1124911DB29F700D811D49
:0A0C00001124911D0895F894FFCF10
:020C0A000100E7
:00000001FF
