:100000000C942A000C9447000C9447000C94470071
:100010000C94E4040C9447000C9447000C94960450
:100020000C94BD040C9447000C946F040C9447008E
:100030000C9447000C9447000C9447000C94470024
:100040000C9447000C9447000C9447000C94470014
:100050000C94470011241FBECFE5D8E0DEBFCDBF12
:1000600010E0A0E6B0E0EEE6FAE002C005900D92E6
:10007000A236B107D9F720E0A2E6B0E001C01D9298
:10008000AC39B207E1F70E9462000C9435050C947C
:10009000000061E080E00E94830061E080E00E9457
:1000A0001301089561E081E00E94830081E00E94D5
:1000B000A301089561E082E00E94830082E00E9433
:1000C000A301089561E083E00E9483000E94010281
:1000D00041E050E064EF71E089E490E00E94190291
:1000E00050E040E064E670E082E590E00E94190292
:1000F00050E040E068EC70E08AE590E00E94190270
:100100000E94CF02FDCF803208F08BC0282F2695A9
:100110002695269591E4920F8770223009F445C008
:10012000943408F060C09134A9F0923489F46111DC
:100130002FC047B321E030E0F90102C0EE0FFF1FEE
:100140008A95E2F7CF018095842387BB862F089597
:1001500081E0089561110FC04AB321E030E0F90158
:1001600002C0EE0FFF1F8A95E2F7CF01809584232E
:100170008ABB862F08959AB321E030E002C0220F97
:10018000331F8A95E2F7892F822B8ABB80E008957E
:1001900097B321E030E002C0220F331F8A95E2F7C7
:1001A000892F822B87BB80E0089561110FC044B373
:1001B00021E030E0F90102C0EE0FFF1F8A95E2F75F
:1001C000CF018095842384BB862F089594B321E0CA
:1001D00030E002C0220F331F8A95E2F7892F822B6D
:1001E00084BB80E0089561110FC041B321E030E08D
:1001F000B90102C0660F771F8A95E2F7CB0180959F
:10020000842381BB81E0089591B321E030E002C0F6
:10021000220F331F8A95E2F7892F822B81BB81E061
:10022000089580E00895803208F08BC0282F26952D
:100230002695269591E4920F8770223009F445C0E7
:10024000943408F060C09134A9F0923489F46111BB
:100250002FC048B321E030E0F90102C0EE0FFF1FCC
:100260008A95E2F7CF018095842388BB862F089575
:1002700081E0089561110FC04BB321E030E0F90136
:1002800002C0EE0FFF1F8A95E2F7CF01809584230D
:100290008BBB862F08959BB321E030E002C0220F74
:1002A000331F8A95E2F7892F822B8BBB80E008955C
:1002B00098B321E030E002C0220F331F8A95E2F7A5
:1002C000892F822B88BB80E0089561110FC045B350
:1002D00021E030E0F90102C0EE0FFF1F8A95E2F73E
:1002E000CF018095842385BB862F089595B321E0A7
:1002F00030E002C0220F331F8A95E2F7892F822B4C
:1003000085BB80E0089561110FC042B321E030E069
:10031000F90102C0EE0FFF1F8A95E2F7CF01809529
:10032000842382BB862F089592B321E030E002C07F
:10033000220F331F8A95E2F7892F822B82BB80E040
:10034000089581E00895803208F045C0282F269551
:100350002695269591E4920F8770223011F19434FE
:1003600068F5913489F0923469F498B321E030E073
:1003700002C0220F331F8A95E2F7892F822788BB9C
:1003800080E0089581E008959BB321E030E002C051
:10039000220F331F8A95E2F7892F82278BBB80E0DB
:1003A000089595B321E030E002C0220F331F8A95F3
:1003B000E2F7892F822785BB80E0089592B321E080
:1003C00030E002C0220F331F8A95E2F7892F82277F
:1003D00082BB80E0089581E0089580916200909151
:1003E0006300A0916400B09165000196A11DB11D4C
:1003F0008093620090936300A0936400B0936500C3
:100400000895CF93DF9300D000D0CDB7DEB7198227
:100410001A8282E08B8381E08C83CE0101960E9458
:10042000940380E00F900F900F900F90DF91CF9189
:100430000895CF92DF92EF92FF92E82FF92F262FA7
:10044000372FC0906600D0906700E0906800F09071
:10045000690084E0C816D104E104F10408F043C047
:1004600082E0309709F440C02115310569F58BE031
:100470008C9DD0018D9DB00D1124A659BF4F4C937A
:1004800080E09BE09C9DD0019D9DB00D1124A6595C
:10049000BF4F1A96FC93EE931997A90170E060E0A4
:1004A00011964D935D936D937C9314979FEFC91AAA
:1004B000D90AE90AF90AC0926600D0926700E09270
:1004C0006800F092690010C084E021303105C9F65F
:1004D0008BE08C9DD0018D9DB00D1124A659BF4F8E
:1004E0004C9380E0CECF81E0FF90EF90DF90CF90F3
:1004F0000895CF92DF92EF92FF920F931F93CF93C5
:10050000DF93C82FD92FC0906600D0906700E0908D
:100510006800F090690083E0C114D104E104F104A3
:10052000A9F181E0C81AD108E108F10831F180E0B1
:100530009BE09C9D80019D9D100D112406591F4F2D
:1005400011C0DF012BE0F80101900D922A95E1F72F
:100550008F5F482F50E070E060E04C155D056E0540
:100560007F0558F4989FF0011124E659FF4F21852B
:1005700032852C173D0761F7E4CFC0926600D09218
:100580006700E0926800F092690080E0DF91CF910F
:100590001F910F91FF90EF90DF90CF9008954F92B1
:1005A0005F926F927F92AF92BF92CF92DF92EF9263
:1005B000FF921F93CF93DF9300D000D000D0CDB730
:1005C000DEB7109160001130B9F01111A9C080910F
:1005D000660090916700A0916800B0916900892B36
:1005E0008A2B8B2B09F49EC08AE690E09E838D8334
:1005F000C12CD12C760144C0809166009091670097
:10060000A0916800B091690015E0892B8A2B8B2B93
:10061000A9F4812F26960FB6F894DEBF0FBECDBF8A
:10062000DF91CF911F91FF90EF90DF90CF90BF901F
:10063000AF907F906F905F904F9008954DEE51E096
:1006400070E060E080E00E94E203182F10926000EA
:10065000E0CFFFEFCF1ADF0AEF0AFF0A8D819E81FC
:100660000B969E838D838091660090916700A09188
:100670006800B0916900C816D906EA06FB0648F67C
:10068000AD80BE8040906200509063006090640036
:1006900070906500D50115962D913D914D915C911D
:1006A00018972F5F3F4F4F4F5F4F11968D919D9140
:1006B0000D90BC91A02DBC01CD010E940B0569835A
:1006C0007A838B839C83461657066806790609F65B
:1006D0008091620090916300A0916400B0916500E8
:1006E000892B8A2B8B2B09F4B4CFD5011996ED9168
:1006F000FC910995F50185819681A781B0850196C8
:10070000A11DB11D85839683A783B0878081813029
:1007100009F09FCF818592850E947902182F99CF89
:1007200015E077CF15E075CFE82FF92F309709F452
:100730003FC09081292F30E0D901AD56BF4F8C9139
:100740008130F1F09330B0F582818330A8F5438198
:100750004230A0F55181583098F5D901AD56BF4FC0
:1007600061E06C93D901AA56BF4F8C9327563F4F37
:10077000D9014C93813029F083818130A1F080E050
:100780000895913041F0923051F09111F9CF83B733
:10079000582B53BFF1CF8EB5582B5EBDEDCF85B52D
:1007A000582B55BDE9CF8FB780688FBF80E0089583
:1007B00080E0089581E0089581E0089581E0089542
:1007C00081E00895982F262F372F642F752F8111E0
:1007D00084C083B7886083BF40919600413009F49C
:1007E0005FC041112DC083B7826083BF80919900A3
:1007F000811114C02115310509F461C050E040E0B9
:1008000061E098B7926098BF6CBF08B601FEFDCF5B
:100810004F5F5F4F24173507A1F70895813011F01E
:10082000842F089588B7826088BF81E08CBF89B724
:10083000826089BF7093920060939100842F089525
:10084000423011F0892F089583B7836083BF809170
:100850009900811113C02115310589F150E040E064
:100860006DE798B7926098BF6CBF08B601FEFDCFE8
:100870004F5F5F4F24173507A1F70895813011F0BE
:10088000892F089588B7826088BF8DE78CBF89B7AC
:10089000826089BF7093920060939100892F0895C0
:1008A00080919900811108C098B7926098BF2CBFC1
:1008B00008B601FEFDCF0895813011F0892F08950B
:1008C00088B7826088BF2CBF89B7826089BF709368
:1008D000920060939100892F089581E008951F92FE
:1008E0000F920FB60F9211242F933F934F935F9364
:1008F0006F937F938F939F93AF93BF93EF93FF93E8
:10090000E0919100F09192000995FF91EF91BF91D4
:10091000AF919F918F917F916F915F914F913F9197
:100920002F910F900FBE0F901F9018951F920F924E
:100930000FB60F9211242F933F934F935F936F93B2
:100940007F938F939F93AF93BF93EF93FF93E09128
:100950008F00F09190000995FF91EF91BF91AF91B9
:100960009F918F917F916F915F914F913F912F91C7
:100970000F900FBE0F901F9018951F920F920FB6F9
:100980000F9211242F933F934F935F936F937F9315
:100990008F939F93AF93BF93EF93FF93E0918D005D
:1009A000F0918E000995FF91EF91BF91AF919F91CA
:1009B0008F917F916F915F914F913F912F910F9008
:1009C0000FBE0F901F9018951F920F920FB60F92A7
:1009D00011242F933F934F935F936F937F938F9344
:1009E0009F93AF93BF93EF93FF93E0918B00F091B0
:1009F0008C000995FF91EF91BF91AF919F918F91DD
:100A00007F916F915F914F913F912F910F900FBE0A
:100A10000F901F901895DB018F939F930E941B05E9
:100A2000BF91AF91A29F800D911DA39F900DB29F8A
:100A3000900D112408950E942605A59F900DB49F46
:100A4000900DA49F800D911D11240895A29FB001C7
:100A5000B39FC001A39F700D811D1124911DB29FF2
:0E0A6000700D811D1124911D0895F894FFCF93
:020A6E00010085
:00000001FF
