:100000000C942A000C9447000C9447000C94470071
:100010000C94ED030C9447000C9447000C949F0340
:100020000C94C6030C9447000C9478030C9447007E
:100030000C9447000C9447000C9447000C94470024
:100040000C9447000C9447000C9447000C94470014
:100050000C94470011241FBECFE5D8E0DEBFCDBF12
:1000600010E0A0E6B0E0ECE2F8E002C005900D92EE
:10007000A236B107D9F720E0A2E6B0E001C01D9298
:10008000AC39B207E1F70E9462000C9414040C949E
:10009000000061E080E00E94890061E080E00E9451
:1000A0001901089561E081E00E94890081E00E94C9
:1000B000A901089561E082E00E94890082E00E9427
:1000C000A901089561E083E00E9489000E9407026F
:1000D00041E050E064EF71E089E490E00E941F028B
:1000E00050E040E064E670E082E590E00E941F028C
:1000F00050E040E068EC70E08AE590E00E941F026A
:1001000083E00E94A9010E947F0283E00E94A9016E
:10011000F7CF803208F08BC0282F2695269526959C
:1001200091E4920F8770223009F445C0943408F0AE
:1001300060C09134A9F0923489F461112FC047B3A3
:1001400021E030E0F90102C0EE0FFF1F8A95E2F7CF
:10015000CF018095842387BB862F089581E0089581
:1001600061110FC04AB321E030E0F90102C0EE0F87
:10017000FF1F8A95E2F7CF01809584238ABB862FE3
:1001800008959AB321E030E002C0220F331F8A9510
:10019000E2F7892F822B8ABB80E0089597B321E094
:1001A00030E002C0220F331F8A95E2F7892F822B9D
:1001B00087BB80E0089561110FC044B321E030E0B7
:1001C000F90102C0EE0FFF1F8A95E2F7CF0180957B
:1001D000842384BB862F089594B321E030E002C0CD
:1001E000220F331F8A95E2F7892F822B84BB80E090
:1001F000089561110FC041B321E030E0B90102C0A0
:10020000660F771F8A95E2F7CB018095842381BB27
:1002100081E0089591B321E030E002C0220F331F46
:100220008A95E2F7892F822B81BB81E0089580E0D7
:100230000895803208F08BC0282F269526952695A4
:1002400091E4920F8770223009F445C0943408F08D
:1002500060C09134A9F0923489F461112FC048B381
:1002600021E030E0F90102C0EE0FFF1F8A95E2F7AE
:10027000CF018095842388BB862F089581E008955F
:1002800061110FC04BB321E030E0F90102C0EE0F65
:10029000FF1F8A95E2F7CF01809584238BBB862FC1
:1002A00008959BB321E030E002C0220F331F8A95EE
:1002B000E2F7892F822B8BBB80E0089598B321E071
:1002C00030E002C0220F331F8A95E2F7892F822B7C
:1002D00088BB80E0089561110FC045B321E030E094
:1002E000F90102C0EE0FFF1F8A95E2F7CF0180955A
:1002F000842385BB862F089595B321E030E002C0AA
:10030000220F331F8A95E2F7892F822B85BB80E06D
:10031000089561110FC042B321E030E0F90102C03D
:10032000EE0FFF1F8A95E2F7CF018095842382BBF1
:10033000862F089592B321E030E002C0220F331FD0
:100340008A95E2F7892F822B82BB80E0089581E0B5
:100350000895803208F045C0282F269526952695C9
:1003600091E4920F8770223011F1943468F5913442
:1003700089F0923469F498B321E030E002C0220F92
:10038000331F8A95E2F7892F822788BB80E0089582
:1003900081E008959BB321E030E002C0220F331FBB
:1003A0008A95E2F7892F82278BBB80E0089595B369
:1003B00021E030E002C0220F331F8A95E2F7892F37
:1003C000822785BB80E0089592B321E030E002C02F
:1003D000220F331F8A95E2F7892F822782BB80E0A4
:1003E000089581E008958091620090916300A0914A
:1003F0006400B09165000196A11DB11D809362005B
:1004000090936300A0936400B09365000895CF9328
:10041000DF9300D000D0CDB7DEB719821A8282E018
:100420008B8381E08C83CE0101960E949D0280E047
:100430000F900F900F900F90DF91CF910895CF9272
:10044000DF92EF92FF92E82FF92F262F372FC090DF
:100450006600D0906700E0906800F090690084E04A
:10046000C816D104E104F10408F043C082E03097DB
:1004700009F440C02115310569F58BE08C9DD00150
:100480008D9DB00D1124A659BF4F4C9380E09BE089
:100490009C9DD0019D9DB00D1124A659BF4F1A9669
:1004A000FC93EE931997A90170E060E011964D93CB
:1004B0005D936D937C9314979FEFC91AD90AE90A4B
:1004C000F90AC0926600D0926700E0926800F0924C
:1004D000690010C084E021303105C9F68BE08C9DA5
:1004E000D0018D9DB00D1124A659BF4F4C9380E0D3
:1004F000CECF81E0FF90EF90DF90CF900895809174
:100500006000813011F085E008958091660090913F
:100510006700A0916800B0916900892B8A2B8B2B12
:1005200011F485E0089543EF51E070E060E080E071
:100530000E94EB02109260000895E82FF92F309787
:1005400009F43FC09081292F30E0D901AD56BF4F4B
:100550008C918130F1F09330B0F582818330A8F531
:1005600043814230A0F55181583098F5D901AD56FC
:10057000BF4F61E06C93D901AA56BF4F8C932756A9
:100580003F4FD9014C93813029F083818130A1F014
:1005900080E00895913041F0923051F09111F9CFFF
:1005A00083B7582B53BFF1CF8EB5582B5EBDEDCF1F
:1005B00085B5582B55BDE9CF8FB780688FBF80E0D8
:1005C000089580E0089581E0089581E0089581E034
:1005D000089581E00895982F262F372F642F752FC7
:1005E000811184C083B7886083BF409196004130F9
:1005F00009F45FC041112DC083B7826083BF809131
:100600009900811114C02115310509F461C050E031
:1006100040E061E098B7926098BF6CBF08B601FEF9
:10062000FDCF4F5F5F4F24173507A1F70895813045
:1006300011F0842F089588B7826088BF81E08CBF55
:1006400089B7826089BF7093920060939100842F74
:100650000895423011F0892F089583B7836083BFD6
:1006600080919900811113C02115310589F150E065
:1006700040E06DE798B7926098BF6CBF08B601FE86
:10068000FDCF4F5F5F4F24173507A1F708958130E5
:1006900011F0892F089588B7826088BF8DE78CBFDD
:1006A00089B7826089BF7093920060939100892F0F
:1006B000089580919900811108C098B7926098BF01
:1006C0002CBF08B601FEFDCF0895813011F0892FAF
:1006D000089588B7826088BF2CBF89B7826089BFC0
:1006E0007093920060939100892F089581E008959E
:1006F0001F920F920FB60F9211242F933F934F9397
:100700005F936F937F938F939F93AF93BF93EF9379
:10071000FF93E0919100F09192000995FF91EF9184
:10072000BF91AF919F918F917F916F915F914F9109
:100730003F912F910F900FBE0F901F9018951F9211
:100740000F920FB60F9211242F933F934F935F9305
:100750006F937F938F939F93AF93BF93EF93FF9389
:10076000E0918F00F09190000995FF91EF91BF917A
:10077000AF919F918F917F916F915F914F913F9139
:100780002F910F900FBE0F901F9018951F920F92F0
:100790000FB60F9211242F933F934F935F936F9354
:1007A0007F938F939F93AF93BF93EF93FF93E091CA
:1007B0008D00F0918E000995FF91EF91BF91AF915F
:1007C0009F918F917F916F915F914F913F912F9169
:1007D0000F900FBE0F901F9018951F920F920FB69B
:1007E0000F9211242F933F934F935F936F937F93B7
:1007F0008F939F93AF93BF93EF93FF93E0918B0001
:10080000F0918C000995FF91EF91BF91AF919F916D
:100810008F917F916F915F914F913F912F910F90A9
:0C0820000FBE0F901F901895F894FFCFAA
:02082C000100C9
:00000001FF
