:100000000C942A000C9447000C9447000C94470071
:100010000C9447000C9487050C9447000C944700FF
:100020000C9447000C945A050C9447000C942E0530
:100030000C9447000C9447000C9447000C94470024
:100040000C9447000C9447000C9447000C94470014
:100050000C94470011241FBECFE5D8E0DEBFCDBF12
:1000600010E0A0E6B0E0EAE6FBE002C005900D92E9
:10007000A236B107D9F720E0A2E6B0E001C01D9298
:10008000A638B207E1F70E9456000C94B3050C9411
:10009000000061E080E00E941301089581E00E9469
:1000A000A301089582E00E94A301089561E080E029
:1000B0000E94830061E081E00E94830061E082E0B1
:1000C0000E94830060E080E00E9413010E940F0202
:1000D00041E050E064EF71E089E490E00E94270283
:1000E00050E040E064E670E08EE490E00E94270279
:1000F00050E040E068EC70E082E590E00E9427026A
:100100000E94FB02FDCF803208F08BC0282F26957D
:100110002695269591E4920F8770223009F445C008
:10012000943408F060C09134A9F0923489F46111DC
:100130002FC047B321E030E0F90102C0EE0FFF1FEE
:100140008A95E2F7CF018095842387BB862F089597
:1001500081E0089561110FC04AB321E030E0F90158
:1001600002C0EE0FFF1F8A95E2F7CF01809584232E
:100170008ABB862F08959AB321E030E002C0220F97
:10018000331F8A95E2F7892F822B8ABB80E008957E
:1001900097B321E030E002C0220F331F8A95E2F7C7
:1001A000892F822B87BB80E0089561110FC044B373
:1001B00021E030E0F90102C0EE0FFF1F8A95E2F75F
:1001C000CF018095842384BB862F089594B321E0CA
:1001D00030E002C0220F331F8A95E2F7892F822B6D
:1001E00084BB80E0089561110FC041B321E030E08D
:1001F000B90102C0660F771F8A95E2F7CB0180959F
:10020000842381BB81E0089591B321E030E002C0F6
:10021000220F331F8A95E2F7892F822B81BB81E061
:10022000089580E00895803208F08BC0282F26952D
:100230002695269591E4920F8770223009F445C0E7
:10024000943408F060C09134A9F0923489F46111BB
:100250002FC048B321E030E0F90102C0EE0FFF1FCC
:100260008A95E2F7CF018095842388BB862F089575
:1002700081E0089561110FC04BB321E030E0F90136
:1002800002C0EE0FFF1F8A95E2F7CF01809584230D
:100290008BBB862F08959BB321E030E002C0220F74
:1002A000331F8A95E2F7892F822B8BBB80E008955C
:1002B00098B321E030E002C0220F331F8A95E2F7A5
:1002C000892F822B88BB80E0089561110FC045B350
:1002D00021E030E0F90102C0EE0FFF1F8A95E2F73E
:1002E000CF018095842385BB862F089595B321E0A7
:1002F00030E002C0220F331F8A95E2F7892F822B4C
:1003000085BB80E0089561110FC042B321E030E069
:10031000F90102C0EE0FFF1F8A95E2F7CF01809529
:10032000842382BB862F089592B321E030E002C07F
:10033000220F331F8A95E2F7892F822B82BB80E040
:10034000089581E00895803208F045C0282F269551
:100350002695269591E4920F8770223011F19434FE
:1003600068F5913489F0923469F498B321E030E073
:1003700002C0220F331F8A95E2F7892F822788BB9C
:1003800080E0089581E008959BB321E030E002C051
:10039000220F331F8A95E2F7892F82278BBB80E0DB
:1003A000089595B321E030E002C0220F331F8A95F3
:1003B000E2F7892F822785BB80E0089592B321E080
:1003C00030E002C0220F331F8A95E2F7892F82277F
:1003D00082BB80E0089581E0089580916200909151
:1003E0006300892BD9F090E080E0FC01EE0FFF1F45
:1003F000EE0FFF1FEE0FFF1FE81BF90BEC59FF4F2D
:10040000238134812F5F3F4F3483238301962091D2
:100410006200309163008217930738F30895CF93F9
:10042000DF9300D000D0CDB7DEB719821A8282E008
:100430008B8381E08C83CE0101960E945B0380E078
:100440000F900F900F900F90DF91CF910895E82FAC
:10045000F92F262F372F8091620090916300049727
:1004600008F05DC0309709F45CC02115310509F032
:1004700040C08091620090916300DC01AA0FBB1F15
:10048000AA0FBB1FAA0FBB1FA81BB90BAC59BF4FAC
:100490004C9380E04091620050916300DA01AA0F12
:1004A000BB1FAA0FBB1FAA0FBB1FA41BB50BAC59C8
:1004B000BF4F1696FC93EE931597409162005091B2
:1004C0006300FA01EE0FFF1FEE0FFF1FEE0FFF1F7D
:1004D000E41BF50BEC59FF4F32832183209162001E
:1004E000309163002F5F3F4F309363002093620091
:1004F000089584E02130310569F680916200909181
:100500006300DC01AA0FBB1FAA0FBB1FAA0FBB1FF2
:10051000A81BB90BAC59BF4F4C9380E0BBCF81E017
:10052000089582E00895682F792F8091620090915C
:100530006300892B09F45DC0809162009091630093
:10054000019709F44BC080E050E040E02FC040919B
:10055000620050916300415051099D01220F331FE9
:10056000220F331F220F331FF901EA1BFB0BDF01A0
:10057000AC59BF4FFA01EE0FFF1FEE0FFF1FEE0F3A
:10058000FF1FE41BF50BEC59FF4F97E001900D9214
:100590009A95E1F78F5F482F50E0209162003091EB
:1005A00063002150310942175307C0F4A82FB0E06F
:1005B00097E0899FF0011124EC59FF4F2581368186
:1005C0002617370739F720916200309163002150D8
:1005D00031092417350709F0BACFDCCF80916200CA
:1005E000909163000197909363008093620080E094
:1005F000089583E00895EF92FF921F93CF93DF93C6
:1006000080916000813059F0809162009091630088
:1006100010E0892B71F0D0E0C0E010E01FC04DEE7B
:1006200051E070E060E080E00E94A903182F109272
:100630006000812FDF91CF911F91FF90EF9008957F
:10064000F701858196810E949302182F21962091AF
:10065000620030916300C217D30758F7FE01EE0F16
:10066000FF1FEE0FFF1FEE0FFF1FEC1BFD0BEC59E2
:10067000FF4F23813481818192812817390731F717
:10068000FE01EE0FFF1FEE0FFF1FEE0FFF1FEC1B13
:10069000FD0BEC59FF4F83819481892BB9F27F01C7
:1006A000148213820580F681E02D0995F70180817F
:1006B000813061F6C5CFE82FF92F309709F43FC09C
:1006C0009081292F30E0D901A358BF4F8C91813000
:1006D000F1F09330B0F582818330A8F54381423048
:1006E000A0F55181583098F5D901A358BF4F61E06A
:1006F0006C93D901A058BF4F8C932D573F4FD90110
:100700004C93813029F083818130A1F080E00895FD
:10071000913041F0923051F09111F9CF83B7582BBD
:1007200053BFF1CF8EB5582B5EBDEDCF85B5582B9D
:1007300055BDE9CF8FB780688FBF80E0089580E016
:10074000089581E0089581E0089581E0089581E0B1
:100750000895982F262F372F642F752F813009F495
:100760009AC0823009F40FC1882311F081E0089506
:1007700040918000413009F46FC0411137C083B708
:10078000826083BF80918300811114C021153105DF
:1007900009F45DC150E040E06EEF98B7916098BFFA
:1007A00062BF08B600FEFDCF4F5F5F4F24173507CD
:1007B000A1F70895813011F0842F089588B78160E2
:1007C00088BF8EEF82BF82B790E090937A008093CB
:1007D000790089B7816089BF80917B0090917C000E
:1007E00090937C0080937B00842F0895423009F021
:1007F000089583B7836083BF80918300811114C003
:100800002115310509F423C150E040E062E898B7B2
:10081000916098BF62BF08B600FEFDCF4F5F5F4F8B
:1008200024173507A1F70895813011F0892F089515
:1008300088B7816088BF82E882BF22B730E03093FA
:100840007A002093790089B7816089BF70937C001A
:1008500060937B00892F089580918300811109C0E6
:1008600098B7916098BF209522BF08B600FEFDCFD3
:100870000895813011F0892F089588B7816088BF6D
:100880008EEF82BF89B7816089BF70937C006093CF
:100890007B00892F089590918100913009F454C014
:1008A000911127C08EB582608EBD80918400811128
:1008B00016C02115310509F4CAC050E040E06FEFC1
:1008C0007FEF98B7946098BF7DBD6CBD08B602FEFF
:1008D000FDCF4F5F5F4F2417350799F7089581309B
:1008E00011F0892F089570937C0060937B00892F0D
:1008F0000895923011F080E008958EB583608EBD2A
:1009000080918400811116C02115310509F49FC022
:1009100050E040E063E87FEF98B7946098BF7DBDFA
:100920006CBD08B602FEFDCF4F5F5F4F2417350741
:1009300099F70895813011F080E0089570937C005C
:1009400060937B0080E008958091840081110CC049
:1009500098B7946098BF3195219531093DBD2CBD64
:1009600008B602FEFDCF0895813011F080E00895B1
:100970003195219531093DBD2CBD70937C0060936C
:100980007B0080E0089590918200913009F44FC07F
:10099000911125C085B5826085BD8091850081114A
:1009A00014C02115310509F452C050E040E06EEF4B
:1009B00064BD08B606FEFDCF98B7906498BF4F5F40
:1009C0005F4F24173507A1F70895813011F0892F63
:1009D000089570937C0060937B00892F0895923076
:1009E00011F080E0089585B5846085BD8091850013
:1009F000811113C02115310551F150E040E062E84A
:100A000064BD08B606FEFDCF98B7906498BF4F5FEF
:100A10005F4F24173507A1F70895813011F080E06A
:100A2000089570937C0060937B0080E0089580912E
:100A30008500811109C098B7906498BF209524BDA6
:100A400008B606FEFDCF0895813011F080E00895CC
:100A500070937C0060937B0080E008951F920F925A
:100A60000FB60F9211242F933F934F935F936F9381
:100A70007F938F939F93AF93BF93EF93FF93809157
:100A8000790090917A0082BFE0917B00F0917C0028
:100A90000995FF91EF91BF91AF919F918F917F91B8
:100AA0006F915F914F913F912F910F900FBE0F90DB
:100AB0001F9018951F920F920FB60F9211242F932B
:100AC0003F934F935F936F937F938F939F93AF93D6
:100AD000BF93EF93FF938091790090917A009DBD31
:100AE0008CBDE0917B00F0917C000995FF91EF9126
:100AF000BF91AF919F918F917F916F915F914F9136
:100B00003F912F910F900FBE0F901F9018951F923D
:100B10000F920FB60F9211242F933F934F935F9331
:100B20006F937F938F939F93AF93BF93EF93FF93B5
:100B30008091790090917A0084BDE0917B00F091E2
:100B40007C000995FF91EF91BF91AF919F918F919B
:100B50007F916F915F914F913F912F910F900FBEB9
:0A0B60000F901F901895F894FFCF36
:020B6A00010088
:00000001FF
