:100000000C942A000C943C000C943C000C943C0092
:100010000C943C000C9405040C943C000C943C00A3
:100020000C943C000C94DE030C943C000C94B20342
:100030000C943C000C943C000C943C000C943C0050
:100040000C943C000C943C000C943C000C943C0040
:100050000C943C0011241FBECFE5D8E0DEBFCDBF1D
:1000600020E0A0E6B0E001C01D92A137B207E1F7A1
:100070000E9448000C942C040C94000080916000B5
:1000800090916100019690936100809360000895C3
:1000900000D000D0CDB7DEB761E080E00E947900EB
:1000A00061E080E00E940901198282E08A838B83EB
:1000B00081E08C83CE0101960E94E3014EE350E083
:1000C00070E060E080E00E9431020BC080E00E949E
:1000D00099011092630010926200109261001092D8
:1000E00060008091600090916100883E9340C8F369
:1000F000EDCF803208F08BC0282F269526952695C7
:1001000091E4920F8770223009F445C0943408F0CE
:1001100060C09134A9F0923489F461112FC047B3C3
:1001200021E030E0F90102C0EE0FFF1F8A95E2F7EF
:10013000CF018095842387BB862F089581E00895A1
:1001400061110FC04AB321E030E0F90102C0EE0FA7
:10015000FF1F8A95E2F7CF01809584238ABB862F03
:1001600008959AB321E030E002C0220F331F8A9530
:10017000E2F7892F822B8ABB80E0089597B321E0B4
:1001800030E002C0220F331F8A95E2F7892F822BBD
:1001900087BB80E0089561110FC044B321E030E0D7
:1001A000F90102C0EE0FFF1F8A95E2F7CF0180959B
:1001B000842384BB862F089594B321E030E002C0ED
:1001C000220F331F8A95E2F7892F822B84BB80E0B0
:1001D000089561110FC041B321E030E0B90102C0C0
:1001E000660F771F8A95E2F7CB018095842381BB48
:1001F00081E0089591B321E030E002C0220F331F67
:100200008A95E2F7892F822B81BB81E0089580E0F7
:100210000895803208F08BC0282F269526952695C4
:1002200091E4920F8770223009F445C0943408F0AD
:1002300060C09134A9F0923489F461112FC048B3A1
:1002400021E030E0F90102C0EE0FFF1F8A95E2F7CE
:10025000CF018095842388BB862F089581E008957F
:1002600061110FC04BB321E030E0F90102C0EE0F85
:10027000FF1F8A95E2F7CF01809584238BBB862FE1
:1002800008959BB321E030E002C0220F331F8A950E
:10029000E2F7892F822B8BBB80E0089598B321E091
:1002A00030E002C0220F331F8A95E2F7892F822B9C
:1002B00088BB80E0089561110FC045B321E030E0B4
:1002C000F90102C0EE0FFF1F8A95E2F7CF0180957A
:1002D000842385BB862F089595B321E030E002C0CA
:1002E000220F331F8A95E2F7892F822B85BB80E08E
:1002F000089561110FC042B321E030E0F90102C05E
:10030000EE0FFF1F8A95E2F7CF018095842382BB11
:10031000862F089592B321E030E002C0220F331FF0
:100320008A95E2F7892F822B82BB80E0089581E0D5
:100330000895803208F045C0282F269526952695E9
:1003400091E4920F8770223011F1943468F5913462
:1003500089F0923469F498B321E030E002C0220FB2
:10036000331F8A95E2F7892F822788BB80E00895A2
:1003700081E008959BB321E030E002C0220F331FDB
:100380008A95E2F7892F82278BBB80E0089595B389
:1003900021E030E002C0220F331F8A95E2F7892F57
:1003A000822785BB80E0089592B321E030E002C04F
:1003B000220F331F8A95E2F7892F822782BB80E0C4
:1003C000089581E00895E82FF92F309709F43FC090
:1003D0009081292F30E0D901A859BF4F8C918130ED
:1003E000F1F09330B0F582818330A8F5438142303B
:1003F000A0F55181583098F5D901A859BF4F61E057
:100400006C93D901A559BF4F8C9322593F4FD90105
:100410004C93813029F083818130A1F080E00895F0
:10042000913041F0923051F09111F9CF83B7582BB0
:1004300053BFF1CF8EB5582B5EBDEDCF85B5582B90
:1004400055BDE9CF8FB780688FBF80E0089580E009
:10045000089581E0089581E0089581E0089581E0A4
:100460000895982F262F372F642F752F813009F488
:1004700096C0823009F40BC1882311F081E0089501
:1004800040916B00413009F46BC0411133C083B718
:10049000826083BF80916E00811114C021153105E7
:1004A00009F459C150E040E06EEF98B7916098BFF1
:1004B00062BF08B600FEFDCF4F5F5F4F24173507C0
:1004C000A1F70895813011F0842F089588B78160D5
:1004D00088BF8EEF82BF82B790E0909365008093D3
:1004E000640089B7816089BF70936700609366007C
:1004F000842F0895423009F0089583B7836083BF45
:1005000080916E00811114C02115310509F423C1B9
:1005100050E040E062E898B7916098BF62BF08B6CB
:1005200000FEFDCF4F5F5F4F24173507A1F70895F9
:10053000813011F0892F089588B7816088BF82E8E3
:1005400082BF22B730E0309365002093640089B702
:10055000816089BF7093670060936600892F08955A
:1005600080916E00811109C098B7916098BF209565
:1005700022BF08B600FEFDCF0895813011F0892F0B
:10058000089588B7816088BF8EEF82BF89B7816088
:1005900089BF7093670060936600892F08959091DA
:1005A0006C00913009F454C0911127C08EB582605F
:1005B0008EBD80916F00811116C02115310509F49F
:1005C000CAC050E040E06FEF7FEF98B7946098BFEB
:1005D0007DBD6CBD08B602FEFDCF4F5F5F4F241797
:1005E000350799F70895813011F0892F0895709398
:1005F000670060936600892F0895923011F080E0C3
:1006000008958EB583608EBD80916F00811116C0F4
:100610002115310509F49FC050E040E063E87FEF09
:1006200098B7946098BF7DBD6CBD08B602FEFDCF43
:100630004F5F5F4F2417350799F70895813011F008
:1006400080E00895709367006093660080E00895ED
:1006500080916F0081110CC098B7946098BF31955C
:10066000219531093DBD2CBD08B602FEFDCF089590
:10067000813011F080E008953195219531093DBD1B
:100680002CBD709367006093660080E008959091A0
:100690006D00913009F44FC0911125C085B582607D
:1006A00085BD80917000811114C02115310509F4B8
:1006B00052C050E040E06EEF64BD08B606FEFDCFCC
:1006C00098B7906498BF4F5F5F4F24173507A1F725
:1006D0000895813011F0892F089570936700609319
:1006E0006600892F0895923011F080E0089585B555
:1006F000846085BD80917000811113C02115310582
:1007000051F150E040E062E864BD08B606FEFDCF5E
:1007100098B7906498BF4F5F5F4F24173507A1F7D4
:100720000895813011F080E0089570936700609320
:10073000660080E0089580917000811109C098B72B
:10074000906498BF209524BD08B606FEFDCF08959D
:10075000813011F080E00895709367006093660027
:1007600080E008951F920F920FB60F9211242F93DD
:100770003F934F935F936F937F938F939F93AF9329
:10078000BF93EF93FF93809164009091650082BFC7
:10079000E0916600F09167000995FF91EF91BF919C
:1007A000AF919F918F917F916F915F914F913F9109
:1007B0002F910F900FBE0F901F9018951F920F92C0
:1007C0000FB60F9211242F933F934F935F936F9324
:1007D0007F938F939F93AF93BF93EF93FF93E0919A
:1007E0006600F09167000995FF91EF91BF91AF917D
:1007F0009F918F917F916F915F914F913F912F9139
:100800000F900FBE0F901F9018951F920F920FB66A
:100810000F9211242F933F934F935F936F937F9386
:100820008F939F93AF93BF93EF93FF93E0916600F5
:10083000F09167000995FF91EF91BF91AF919F9162
:100840008F917F916F915F914F913F912F910F9079
:0C0850000FBE0F901F901895F894FFCF7A
:00000001FF
