:100000000C942A000C9447000C9447000C94470071
:100010000C9447000C9447000C9447000C94470044
:100020000C9447000C9447000C9447000C94470034
:100030000C9447000C9447000C9447000C94470024
:100040000C9447000C9447000C9447000C94470014
:100050000C94470011241FBECFE5D8E0DEBFCDBF12
:1000600010E0A0E6B0E0E8E7F9E002C005900D92EC
:10007000A237B107D9F720E0A2E7B0E001C01D9296
:10008000A738B207E1F70E9464000C94BA040C94FC
:10009000000080E690E09F938F930E94EC010F9008
:1000A0000F90089586E690E09F938F930E94EC0155
:1000B0000F900F9008958AE690E09F938F930E948F
:1000C000EC010F900F90089565E070E089E490E0F6
:1000D0000E94B100811133C063E070E082E590E0DE
:1000E0000E94B10081112DC067E070E08BE590E0C7
:1000F0000E94B100811127C089E490E00E9455015F
:10010000811123C00E94CB00811121C082E590E0C3
:100110000E94550181111DC00E94CB0081111BC09E
:1001200063E070E082E590E00E94B100811115C0AB
:100130000E94CB00811113C090E080E008950E94DE
:10014000E7010E94E7010E94E7010E94E7010E9487
:10015000E7010E94E7010E94E7010E94E7010E9477
:10016000E70121E02093800020917300233088F480
:10017000E22FF0E0EE0FFF1FEE0FFF1FEC58FF4FD6
:1001800082839383608371832F5F2093730080E069
:10019000089581E008950F931F93CF93809180007D
:1001A000813049F080917300C0E030E020E082307F
:1001B00008F05DC04DC010928000809173008150A6
:1001C000C2F094E08902F0011124E059FF4F04C00D
:1001D0008150349788236CF040815181248135818E
:1001E00024173507A8F755834483332731832083A9
:1001F000EFCF8AE090E00E94000280917300882394
:1002000019F1C0E090E080E00FE610E0880F991F40
:10021000880F991FFC01EC58FF4F81818F938081DB
:100220008F931F930F930E94EC01CF5F8C2F0C2EA6
:10023000000C990B209173000F900F900F900F906E
:100240002817190609F014F78AE090E00E940002CE
:1002500080E0CF911F910F910895CF5F2C2F30E058
:10026000809173008150990B281739078CF76091A2
:100270007200662391F3F901EE0FFF1FEE0FFF1FCF
:10028000EC58FF4F70E0808191810E94D301892B4F
:1002900021F7220F331F220F331FF901EC58FF4FB4
:1002A0000280F381E02D0995D8CF8F929F92AF9273
:1002B000BF92DF92EF92FF920F931F93CF93DF9342
:1002C000682F792F30917300832F8150990BAC01E7
:1002D000181619060CF054C0EC01CC0FDD1FCC0F22
:1002E000DD1FCC58DF4F20E0A0E090E080E0DD246F
:1002F000D3940BC019830883FB82EA82AD2D2F5F54
:10030000822F90E084179507E4F5FC01EE0FFF1FA4
:10031000EE0FFF1FEC58FF4F0280F381E02DE61730
:10032000F70769F7880F991F880F991FFC01EC5890
:10033000FF4F00811181E280F380822F90E024172B
:100340001506C4F6DC01AA0FBB1FAA0FBB1FAC58D1
:10035000BF4F880F991F880F991FFC01E858FF4F66
:1003600080809180A280B3808D929D92AD92BC924C
:1003700013972F5F822F90E0841795071CF3BACF55
:10038000A0E031503093730081E0A11180E0DF9153
:10039000CF911F910F91FF90EF90DF90BF90AF90A2
:1003A0009F908F900895AA1BBB1B51E107C0AA1F05
:1003B000BB1FA617B70710F0A61BB70B881F991F06
:1003C0005A95A9F780959095BC01CD01089581E0DB
:1003D00090E0F8940C94BA04B0E0A0E0E2EFF1E011
:1003E0000C949304FE01359661917191AF01809157
:1003F0008300909184000E940702E2E00C94AF0415
:1004000060918300709184000E94F5030895AFE02D
:10041000B0E0EDE0F2E00C9483047C013B018A0142
:10042000DC0117961C921E92169713968C9181FFF1
:10043000C3C19AE0292EFE0131964F01D7011396D0
:100440009C91F30193FD859193FF81913F01882356
:1004500009F448C1853239F493FD859193FF819168
:100460003F01853229F4B70190E00E94F503E6CF01
:10047000B12C412C512CBFE1B51538F08B3209F16C
:1004800088F4803201F1833221F157FC3AC020ED2B
:10049000280F2A3040F556FE1FC0B29C200D1124B3
:1004A000B22E06C08D3291F0803379F7689450F8FF
:1004B000F30193FD859193FF81913F018111DBCF82
:1004C00020C0689451F8689452F8F2CF689453F8B9
:1004D000EFCF689454F8ECCF429C200D1124422EAB
:1004E000689455F8E5CF8E3229F456FCFBC0689429
:1004F00056F8DECF8C3619F4689457F8D9CF883681
:10050000B9F2982F9F7D95549330C0F08336A1F1B6
:100510008337C1F1833509F05BC0D801CD90DD9000
:100520008D016B2D70E056FC02C06FEF7FEFC601AE
:100530000E94DF035C01689457F80AC00C5F1F4FEC
:10054000EFE3E983AA24A394B12C6401E89457F85B
:1005500053FC04C04A141B0409F018F5342CA114F0
:10056000B10431F5332009F469CFB70180E290E09E
:100570000E94F5033A94F6CFD8018C9189830E5FDF
:100580001F4FE0CFF801C190D1908F016B2D70E02B
:1005900056FC02C06FEF7FEFC6010E94EA035C01C8
:1005A000D5CFB70180E290E00E94F5034A94D2CF04
:1005B000F60157FC859157FE81916F01B70190E0DC
:1005C0000E94F50331103A94B1E0AB1AB108C7CFDD
:1005D000843619F0893609F074C0F80157FE6AC0F4
:1005E00061917191819191918F01E52DEF76DE2ED0
:1005F00097FF09C090958095709561957F4F8F4FBB
:100600009F4F6894D7F82AE030E0A4010E942504A7
:10061000C82EC818AC2C5D2CD6FE0CC0E89450F83F
:10062000CB1440F4D4FE05C0D2FC03C05D2D5E7E29
:10063000552EAB2C54FE98C0FE01EC0DF11D8081AF
:10064000803309F08AC0652D697E562E752D78702D
:10065000372E53FC98C050FE92C0BC2CA41418F442
:100660004C0CB42CBA1854FE94C0B70180E390E04F
:100670000E94F50352FE09C088E790E051FE02C0D7
:1006800088E590E0B7010E94F503CB1408F48DC013
:10069000CA94D12C8FEFC81AD80AC80CD91CD6011D
:1006A0008E916D01B70190E00E94F5038C149D04BA
:1006B000B1F758CF61917191072E000C880B990BFF
:1006C00093CFD52CE894D4F82AE030E0853739F17F
:1006D000F52DF97FDF2E8037A9F058F48835A9F081
:1006E0008F36D9F0F701868197812F96E2E10C943D
:1006F0009F048837B9F7D4FE02C06894D2F820E18D
:1007000030E00DC06894D4F8F6CF54FE03C02F2F0C
:100710002660D22E20E132E002C028E030E0F8016D
:10072000D7FE15C041915191619171914C875D87C0
:100730006E877F878F01A4016C857D858E859F855F
:100740000E942504C82EC818E894D7F863CF819179
:100750009191AC0170E060E0E9CF52FC02C0A3943B
:1007600075CFA394A39472CF852D867809F46ECFAC
:10077000F6CFB70180E290E00E94F503A394A414A1
:10078000C0F3312C70CF342C3A18A41408F46BCF7A
:10079000F8CF852D867809F478CF8BE251FE80E280
:1007A00057FC8DE2B70190E06ECFB70180E390E097
:1007B0000E94F503BA9469CF8FEF9FEF96CFFC01AB
:1007C0000590615070400110D8F7809590958E0F7C
:1007D0009F1F0895FC016150704001900110D8F7EF
:1007E000809590958E0F9F1F08950F931F93CF9321
:1007F000DF93182F092FEB018B8181FD09C01FEFBB
:100800000FEF812F902FDF91CF911F910F910895BE
:1008100082FF14C02E813F818C819D81281739076A
:100820003CF4E881F981CF01019699838883108394
:100830008E819F8101969F838E83E3CFE885F98522
:10084000812F0995892BA1F3DACFFA01AA27283045
:1008500051F1203181F1E8946F936E7F6E5F7F4F8D
:100860008F4F9F4FAF4FB1E03ED0B4E03CD0670F09
:10087000781F891F9A1FA11D680F791F8A1F911D5C
:10088000A11D6A0F711D811D911DA11D20D009F4AC
:1008900068943F912AE0269F11243019305D3193EE
:1008A000DEF6CF010895462F4770405D4193B3E0D7
:1008B0000FD0C9F7F6CF462F4F70405D4A3318F07E
:1008C000495D31FD4052419302D0A9F7EACFB4E02F
:1008D000A6959795879577956795BA95C9F70097E7
:1008E0006105710508959B01AC010A2E0694579588
:1008F000479537952795BA95C9F7620F731F841FDF
:10090000951FA01D08952F923F924F925F926F9274
:100910007F928F929F92AF92BF92CF92DF92EF928F
:10092000FF920F931F93CF93DF93CDB7DEB7CA1B10
:10093000DB0B0FB6F894DEBF0FBECDBF09942A883B
:10094000398848885F846E847D848C849B84AA84E3
:10095000B984C884DF80EE80FD800C811B81AA8170
:10096000B981CE0FD11D0FB6F894DEBF0FBECDBF3B
:08097000ED010895F894FFCF9A
:100978007072696E74006765740073656E64002533
:02098800640009
:00000001FF
